{
  "contractName": "Crowdsale",
  "abi": [
    {
      "constant": true,
      "inputs": [],
      "name": "duration",
      "outputs": [
        {
          "name": "",
          "type": "uint256"
        }
      ],
      "payable": false,
      "stateMutability": "view",
      "type": "function"
    },
    {
      "constant": true,
      "inputs": [],
      "name": "crowdsaleTokenSold",
      "outputs": [
        {
          "name": "",
          "type": "uint256"
        }
      ],
      "payable": false,
      "stateMutability": "view",
      "type": "function"
    },
    {
      "constant": true,
      "inputs": [],
      "name": "weiRaised",
      "outputs": [
        {
          "name": "",
          "type": "uint256"
        }
      ],
      "payable": false,
      "stateMutability": "view",
      "type": "function"
    },
    {
      "constant": true,
      "inputs": [],
      "name": "RaisedInCents",
      "outputs": [
        {
          "name": "",
          "type": "uint256"
        }
      ],
      "payable": false,
      "stateMutability": "view",
      "type": "function"
    },
    {
      "constant": true,
      "inputs": [],
      "name": "wallet",
      "outputs": [
        {
          "name": "",
          "type": "address"
        }
      ],
      "payable": false,
      "stateMutability": "view",
      "type": "function"
    },
    {
      "constant": true,
      "inputs": [],
      "name": "tokenPrice",
      "outputs": [
        {
          "name": "",
          "type": "uint256"
        }
      ],
      "payable": false,
      "stateMutability": "view",
      "type": "function"
    },
    {
      "constant": true,
      "inputs": [],
      "name": "owner",
      "outputs": [
        {
          "name": "",
          "type": "address"
        }
      ],
      "payable": false,
      "stateMutability": "view",
      "type": "function"
    },
    {
      "constant": true,
      "inputs": [
        {
          "name": "",
          "type": "address"
        }
      ],
      "name": "whitelistedContributors",
      "outputs": [
        {
          "name": "",
          "type": "bool"
        }
      ],
      "payable": false,
      "stateMutability": "view",
      "type": "function"
    },
    {
      "constant": true,
      "inputs": [
        {
          "name": "",
          "type": "address"
        }
      ],
      "name": "beneficiaryVsTokens",
      "outputs": [
        {
          "name": "",
          "type": "uint256"
        }
      ],
      "payable": false,
      "stateMutability": "view",
      "type": "function"
    },
    {
      "constant": true,
      "inputs": [],
      "name": "crowdsalestarted",
      "outputs": [
        {
          "name": "",
          "type": "bool"
        }
      ],
      "payable": false,
      "stateMutability": "view",
      "type": "function"
    },
    {
      "constant": true,
      "inputs": [
        {
          "name": "",
          "type": "address"
        }
      ],
      "name": "beneficiaryVsWeiamount",
      "outputs": [
        {
          "name": "",
          "type": "uint256"
        }
      ],
      "payable": false,
      "stateMutability": "view",
      "type": "function"
    },
    {
      "constant": false,
      "inputs": [
        {
          "name": "newOwner",
          "type": "address"
        }
      ],
      "name": "transferOwnership",
      "outputs": [],
      "payable": false,
      "stateMutability": "nonpayable",
      "type": "function"
    },
    {
      "constant": true,
      "inputs": [],
      "name": "hardCap",
      "outputs": [
        {
          "name": "",
          "type": "uint256"
        }
      ],
      "payable": false,
      "stateMutability": "view",
      "type": "function"
    },
    {
      "constant": true,
      "inputs": [],
      "name": "token",
      "outputs": [
        {
          "name": "",
          "type": "address"
        }
      ],
      "payable": false,
      "stateMutability": "view",
      "type": "function"
    },
    {
      "constant": true,
      "inputs": [],
      "name": "ethPrice",
      "outputs": [
        {
          "name": "",
          "type": "uint256"
        }
      ],
      "payable": false,
      "stateMutability": "view",
      "type": "function"
    },
    {
      "inputs": [
        {
          "name": "_newOwner",
          "type": "address"
        },
        {
          "name": "_wallet",
          "type": "address"
        },
        {
          "name": "_token",
          "type": "address"
        },
        {
          "name": "_ethPriceincents",
          "type": "uint256"
        }
      ],
      "payable": false,
      "stateMutability": "nonpayable",
      "type": "constructor"
    },
    {
      "payable": true,
      "stateMutability": "payable",
      "type": "fallback"
    },
    {
      "anonymous": false,
      "inputs": [
        {
          "indexed": true,
          "name": "purchaser",
          "type": "address"
        },
        {
          "indexed": true,
          "name": "beneficiary",
          "type": "address"
        },
        {
          "indexed": false,
          "name": "value",
          "type": "uint256"
        },
        {
          "indexed": false,
          "name": "amount",
          "type": "uint256"
        }
      ],
      "name": "TokenPurchase",
      "type": "event"
    },
    {
      "anonymous": false,
      "inputs": [
        {
          "indexed": true,
          "name": "previousOwner",
          "type": "address"
        },
        {
          "indexed": true,
          "name": "newOwner",
          "type": "address"
        }
      ],
      "name": "OwnershipTransferred",
      "type": "event"
    },
    {
      "constant": false,
      "inputs": [
        {
          "name": "addrs",
          "type": "address[]"
        }
      ],
      "name": "authorizeKyc",
      "outputs": [
        {
          "name": "success",
          "type": "bool"
        }
      ],
      "payable": false,
      "stateMutability": "nonpayable",
      "type": "function"
    },
    {
      "constant": false,
      "inputs": [],
      "name": "startCrowdSale",
      "outputs": [],
      "payable": false,
      "stateMutability": "nonpayable",
      "type": "function"
    },
    {
      "constant": false,
      "inputs": [
        {
          "name": "_beneficiary",
          "type": "address"
        }
      ],
      "name": "buyTokens",
      "outputs": [],
      "payable": true,
      "stateMutability": "payable",
      "type": "function"
    },
    {
      "constant": true,
      "inputs": [
        {
          "name": "_usdCents",
          "type": "uint256"
        }
      ],
      "name": "_getTokenAmount",
      "outputs": [
        {
          "name": "",
          "type": "uint256"
        }
      ],
      "payable": false,
      "stateMutability": "view",
      "type": "function"
    },
    {
      "constant": false,
      "inputs": [],
      "name": "endCrowdsale",
      "outputs": [],
      "payable": false,
      "stateMutability": "nonpayable",
      "type": "function"
    }
  ],
  "bytecode": "0x60806040526329b927006009556000600a556000600c60006101000a81548160ff021916908315150217905550600a600d5534801561003d57600080fd5b5060405160808061111683398101806040528101908080519060200190929190805190602001909291908051906020019092919080519060200190929190505050336000806101000a81548173ffffffffffffffffffffffffffffffffffffffff021916908373ffffffffffffffffffffffffffffffffffffffff160217905550600073ffffffffffffffffffffffffffffffffffffffff168373ffffffffffffffffffffffffffffffffffffffff16141515156100fa57600080fd5b600073ffffffffffffffffffffffffffffffffffffffff168473ffffffffffffffffffffffffffffffffffffffff161415151561013657600080fd5b600073ffffffffffffffffffffffffffffffffffffffff168273ffffffffffffffffffffffffffffffffffffffff161415151561017257600080fd5b82600260006101000a81548173ffffffffffffffffffffffffffffffffffffffff021916908373ffffffffffffffffffffffffffffffffffffffff160217905550836000806101000a81548173ffffffffffffffffffffffffffffffffffffffff021916908373ffffffffffffffffffffffffffffffffffffffff16021790555081600160006101000a81548173ffffffffffffffffffffffffffffffffffffffff021916908373ffffffffffffffffffffffffffffffffffffffff16021790555080600b8190555050505050610ec88061024e6000396000f300608060405260043610610112576000357c0100000000000000000000000000000000000000000000000000000000900463ffffffff1680630fb5a6b41461017457806319af6f481461019f5780632095f2d4146101ca5780634042b66f146101e1578063434c471e1461020c578063521eb2731461023757806370d7a0e71461028e5780637a99bb0a146102e15780637ff9b596146103225780638da5cb5b1461034d578063c7b850dd146103a4578063d1a7f242146103ff578063d6b5652014610456578063ec8ac4d814610485578063ef3c2869146104bb578063f2b45ac114610512578063f2fde38b14610529578063fb86a4041461056c578063fc0c546a14610597578063ff186b2e146105ee575b6000809054906101000a900473ffffffffffffffffffffffffffffffffffffffff1673ffffffffffffffffffffffffffffffffffffffff163373ffffffffffffffffffffffffffffffffffffffff161415156101725761017133610619565b5b005b34801561018057600080fd5b50610189610934565b6040518082815260200191505060405180910390f35b3480156101ab57600080fd5b506101b461093a565b6040518082815260200191505060405180910390f35b3480156101d657600080fd5b506101df610940565b005b3480156101ed57600080fd5b506101f66109d3565b6040518082815260200191505060405180910390f35b34801561021857600080fd5b506102216109d9565b6040518082815260200191505060405180910390f35b34801561024357600080fd5b5061024c6109df565b604051808273ffffffffffffffffffffffffffffffffffffffff1673ffffffffffffffffffffffffffffffffffffffff16815260200191505060405180910390f35b34801561029a57600080fd5b506102c7600480360381019080803590602001908201803590602001919091929391929390505050610a05565b604051808215151515815260200191505060405180910390f35b3480156102ed57600080fd5b5061030c60048036038101908080359060200190929190505050610b13565b6040518082815260200191505060405180910390f35b34801561032e57600080fd5b50610337610b50565b6040518082815260200191505060405180910390f35b34801561035957600080fd5b50610362610b56565b604051808273ffffffffffffffffffffffffffffffffffffffff1673ffffffffffffffffffffffffffffffffffffffff16815260200191505060405180910390f35b3480156103b057600080fd5b506103e5600480360381019080803573ffffffffffffffffffffffffffffffffffffffff169060200190929190505050610b7b565b604051808215151515815260200191505060405180910390f35b34801561040b57600080fd5b50610440600480360381019080803573ffffffffffffffffffffffffffffffffffffffff169060200190929190505050610b9b565b6040518082815260200191505060405180910390f35b34801561046257600080fd5b5061046b610bb3565b604051808215151515815260200191505060405180910390f35b6104b9600480360381019080803573ffffffffffffffffffffffffffffffffffffffff169060200190929190505050610619565b005b3480156104c757600080fd5b506104fc600480360381019080803573ffffffffffffffffffffffffffffffffffffffff169060200190929190505050610bc6565b6040518082815260200191505060405180910390f35b34801561051e57600080fd5b50610527610bde565b005b34801561053557600080fd5b5061056a600480360381019080803573ffffffffffffffffffffffffffffffffffffffff169060200190929190505050610c17565b005b34801561057857600080fd5b50610581610d6c565b6040518082815260200191505060405180910390f35b3480156105a357600080fd5b506105ac610d72565b604051808273ffffffffffffffffffffffffffffffffffffffff1673ffffffffffffffffffffffffffffffffffffffff16815260200191505060405180910390f35b3480156105fa57600080fd5b50610603610d98565b6040518082815260200191505060405180910390f35b6000806000808311151561062c57600080fd5b6000600b5411151561063d57600080fd5b60011515600660008673ffffffffffffffffffffffffffffffffffffffff1673ffffffffffffffffffffffffffffffffffffffff16815260200190815260200160002060009054906101000a900460ff16151514151561069c57600080fd5b60011515600c60009054906101000a900460ff1615151415156106be57600080fd5b3492506106f0670de0b6b3a76400006106e2600b5486610d9e90919063ffffffff16565b610dd990919063ffffffff16565b91506106fb82610b13565b90506107078483610df4565b5061071d83600354610e6490919063ffffffff16565b60038190555061077581600760008773ffffffffffffffffffffffffffffffffffffffff1673ffffffffffffffffffffffffffffffffffffffff16815260200190815260200160002054610e6490919063ffffffff16565b600760008673ffffffffffffffffffffffffffffffffffffffff1673ffffffffffffffffffffffffffffffffffffffff1681526020019081526020016000208190555061080a83600860008773ffffffffffffffffffffffffffffffffffffffff1673ffffffffffffffffffffffffffffffffffffffff16815260200190815260200160002054610e6490919063ffffffff16565b600860008673ffffffffffffffffffffffffffffffffffffffff1673ffffffffffffffffffffffffffffffffffffffff168152602001908152602001600020819055506108578482610e82565b508373ffffffffffffffffffffffffffffffffffffffff163373ffffffffffffffffffffffffffffffffffffffff167f623b3804fa71d67900d064613da8f94b9617215ee90799290593e1745087ad188584604051808381526020018281526020019250505060405180910390a3600260009054906101000a900473ffffffffffffffffffffffffffffffffffffffff1673ffffffffffffffffffffffffffffffffffffffff166108fc349081150290604051600060405180830381858888f1935050505015801561092d573d6000803e3d6000fd5b5050505050565b60055481565b600a5481565b6000809054906101000a900473ffffffffffffffffffffffffffffffffffffffff1673ffffffffffffffffffffffffffffffffffffffff163373ffffffffffffffffffffffffffffffffffffffff1614151561099b57600080fd5b600c60009054906101000a900460ff1615156109b657600080fd5b6000600c60006101000a81548160ff021916908315150217905550565b60035481565b60045481565b600260009054906101000a900473ffffffffffffffffffffffffffffffffffffffff1681565b60008060008060009054906101000a900473ffffffffffffffffffffffffffffffffffffffff1673ffffffffffffffffffffffffffffffffffffffff163373ffffffffffffffffffffffffffffffffffffffff16141515610a6557600080fd5b848490509150600090505b81811015610b07576001600660008787858181101515610a8c57fe5b9050602002013573ffffffffffffffffffffffffffffffffffffffff1673ffffffffffffffffffffffffffffffffffffffff1673ffffffffffffffffffffffffffffffffffffffff16815260200190815260200160002060006101000a81548160ff0219169083151502179055508080600101915050610a70565b60019250505092915050565b600080610b45670de0b6b3a7640000610b37600d5486610dd990919063ffffffff16565b610d9e90919063ffffffff16565b905080915050919050565b600d5481565b6000809054906101000a900473ffffffffffffffffffffffffffffffffffffffff1681565b60066020528060005260406000206000915054906101000a900460ff1681565b60076020528060005260406000206000915090505481565b600c60009054906101000a900460ff1681565b60086020528060005260406000206000915090505481565b600c60009054906101000a900460ff16151515610bfa57600080fd5b6001600c60006101000a81548160ff021916908315150217905550565b6000809054906101000a900473ffffffffffffffffffffffffffffffffffffffff1673ffffffffffffffffffffffffffffffffffffffff163373ffffffffffffffffffffffffffffffffffffffff16141515610c7257600080fd5b600073ffffffffffffffffffffffffffffffffffffffff168173ffffffffffffffffffffffffffffffffffffffff1614151515610cae57600080fd5b8073ffffffffffffffffffffffffffffffffffffffff166000809054906101000a900473ffffffffffffffffffffffffffffffffffffffff1673ffffffffffffffffffffffffffffffffffffffff167f8be0079c531659141344cd1fd0a4f28419497f9722a3daafe3b4186f6b6457e060405160405180910390a3806000806101000a81548173ffffffffffffffffffffffffffffffffffffffff021916908373ffffffffffffffffffffffffffffffffffffffff16021790555050565b60095481565b600160009054906101000a900473ffffffffffffffffffffffffffffffffffffffff1681565b600b5481565b6000806000841415610db35760009150610dd2565b8284029050828482811515610dc457fe5b04141515610dce57fe5b8091505b5092915050565b6000808284811515610de757fe5b0490508091505092915050565b60008073ffffffffffffffffffffffffffffffffffffffff168373ffffffffffffffffffffffffffffffffffffffff1614151515610e3157600080fd5b610e4682600454610e6490919063ffffffff16565b5060045460095411151515610e5a57600080fd5b6001905092915050565b6000808284019050838110151515610e7857fe5b8091505092915050565b6000610e8e8383610e98565b6001905092915050565b50505600a165627a7a723058202322801e61825eea9ed3fb780d0710860d49356b80a4bee3bbaba6b3608ba6b10029",
  "source": "pragma solidity 0.4.24;\nimport './SafeMath.sol';\nimport './Ownable.sol';\n\n\ncontract fraction0x {\n\n  function saleTransfer(address _to, uint256 _value) public returns (bool);\n\n}\n\n\n\n/**\n * @title Crowdsale\n * @dev Crowdsale is a base contract for managing a token crowdsale,\n * allowing investors to purchase tokens with ether. This contract implements\n * such functionality in its most fundamental form and can be extended to provide additional\n * functionality and/or custom behavior.\n * The external interface represents the basic interface for purchasing tokens, and conform\n * the base architecture for crowdsales. They are *not* intended to be modified / overriden.\n * The internal interface conforms the extensible and modifiable surface of crowdsales. Override \n * the methods to add functionality. Consider using 'super' where appropiate to concatenate\n * behavior.\n */\n\n\ncontract Crowdsale is Ownable  {\n  \n  using SafeMath for uint256;\n\n  // The token being sold\n  fraction0x public token;\n\n  // Address where funds are collected\n  address public wallet;\n\n  // Amount of wei raised\n  uint256 public weiRaised;\n  // Amount of usd in cents Raised\n  \n  uint256 public RaisedInCents;\n  uint256 public duration;\n  \n  mapping (address => bool) public whitelistedContributors;\n  mapping(address => uint256) public beneficiaryVsTokens;\n  mapping(address => uint256) public beneficiaryVsWeiamount;\n \n\n \n  //Hardcap and softcap of a sale is define\n  uint256 public hardCap = 700000000;// 7 mn USD\n  \n  \n  \n  //No of tokens sold in each phase\n  uint256 public crowdsaleTokenSold=0;\n  \n  uint256 public ethPrice;\n  \n  bool public crowdsalestarted = false;\n\n  \n  \n  //percentage of bonus in different phases\n  \n  \n  \n  uint256 public tokenPrice = 10; // price in USD cents, 1 token = 0.1 USD\n\n  /**\n   * Event for token purchase logging\n   * @param purchaser who paid for the tokens\n   * @param beneficiary who got the tokens\n   * @param value weis paid for purchase\n   * @param amount amount of tokens purchased\n   */\n  event TokenPurchase(address indexed purchaser, address indexed beneficiary, uint256 value, uint256 amount);\n\n  \n  /**\n   * @param _wallet Address where collected funds will be forwarded to\n   * @param _wallet Address to collect funds\n   * @param _token Address of the token being sold\n   */\n  constructor(address _newOwner, address _wallet, fraction0x _token, uint256 _ethPriceincents) public \n  {\n    require(_wallet != address(0));\n    require(_newOwner != address(0));\n    require(_token != address(0));\n    \n\n    wallet = _wallet;\n    owner = _newOwner;\n    token = _token;\n    ethPrice = _ethPriceincents;\n\n    \n  }\n  \n    function authorizeKyc(address[] addrs) external onlyOwner returns (bool success) {\n        uint arrayLength = addrs.length;\n        for (uint x = 0; x < arrayLength; x++) {\n            whitelistedContributors[addrs[x]] = true;\n        }\n\n        return true;\n    }\n\n  \n  function startCrowdSale() public {\n      \n      require(!crowdsalestarted);\n      crowdsalestarted = true;\n      \n  }  \n  \n  /**\n   * @dev fallback function ***DO NOT OVERRIDE***\n   */\n  function () external payable {\n    if (msg.sender != owner) buyTokens(msg.sender);\n  }\n\n  /**\n   * @param _beneficiary Address performing the token purchase\n   */\n  function buyTokens(address _beneficiary) public payable {\n  \n    require(weiAmount > 0);\n    require(ethPrice > 0);\n    require(whitelistedContributors[_beneficiary] == true);\n    require(crowdsalestarted == true);\n    \n    uint256 weiAmount = msg.value;\n    uint256 usdCents = weiAmount.mul(ethPrice).div(1 ether); \n    \n\n    // calculate token amount to be created\n    uint256 tokens = _getTokenAmount(usdCents);\n   _preValidatePurchase(_beneficiary, usdCents);\n    \n\n    // update state\n    weiRaised = weiRaised.add(weiAmount);\n    \n    beneficiaryVsTokens[_beneficiary] = beneficiaryVsTokens[_beneficiary].add(tokens);\n    \n    beneficiaryVsWeiamount[_beneficiary] = beneficiaryVsWeiamount[_beneficiary].add(weiAmount);\n    \n  \n    _processPurchase(_beneficiary, tokens);\n    \n    emit TokenPurchase(msg.sender, _beneficiary, weiAmount, tokens);\n    \n    wallet.transfer(msg.value);\n  }\n  \n  function _getTokenAmount(uint256 _usdCents) public view returns (uint256) {\n    \n    uint256 tokens = _usdCents.div(tokenPrice).mul(1 ether);\n    return tokens;\n  }\n\n  /**\n   * @dev Validation of an incoming purchase. Use require statemens to revert state when conditions are not met. Use super to concatenate validations.\n   * @param _beneficiary Address performing the token purchase\n \n   */\n  function _preValidatePurchase(address _beneficiary, uint256 _usdCents) internal view returns(bool)\n  {\n    require(_beneficiary != address(0));\n    RaisedInCents.add(_usdCents);\n    require(hardCap <= RaisedInCents);\n    return true;\n  }\n  \n  /**\n   * @dev Executed when a purchase has been validated and is ready to be executed. Not necessarily emits/sends tokens.\n   * @param _beneficiary Address receiving the tokens\n   * @param _tokenAmount Number of tokens to be purchased\n   */\n  function _processPurchase(address _beneficiary, uint256 _tokenAmount) internal returns(bool) {\n    _deliverTokens(_beneficiary, _tokenAmount);\n    return true;\n  }\n\n  /**\n   * @param _usdCents Value in usd cents to be converted into tokens\n   * @return Number of tokens that can be purchased with the specified _usdCents\n   */\n  \n  /**\n   * @dev Source of tokens. Override this method to modify the way in which the crowdsale ultimately gets and sends its tokens.\n   * @param _beneficiary Address performing the token purchase\n   * @param _tokenAmount Number of tokens to be emitted\n   */\n  function _deliverTokens(address _beneficiary, uint256 _tokenAmount) internal {\n   // require(token.saleTransfer(_beneficiary, _tokenAmount));\n  }\n\n  function endCrowdsale() public onlyOwner\n  {\n      require(crowdsalestarted);\n      crowdsalestarted = false;\n  }\n  \n}\n",
  "sourcePath": "/home/abhi_21094/Desktop/fractionSTO/contracts/Crowdsale.sol",
  "compiler": {
    "name": "solc",
    "version": "0.4.24+commit.e67f0147.Emscripten.clang"
  },
  "schemaVersion": "2.0.1",
  "updatedAt": "2018-10-31T07:32:52.378Z"
}