{
  "contractName": "Crowdsale",
  "abi": [
    {
      "constant": true,
      "inputs": [],
      "name": "duration",
      "outputs": [
        {
          "name": "",
          "type": "uint256"
        }
      ],
      "payable": false,
      "stateMutability": "view",
      "type": "function"
    },
    {
      "constant": true,
      "inputs": [],
      "name": "crowdsaleTokenSold",
      "outputs": [
        {
          "name": "",
          "type": "uint256"
        }
      ],
      "payable": false,
      "stateMutability": "view",
      "type": "function"
    },
    {
      "constant": true,
      "inputs": [],
      "name": "crowdsaleEndTime",
      "outputs": [
        {
          "name": "",
          "type": "uint256"
        }
      ],
      "payable": false,
      "stateMutability": "view",
      "type": "function"
    },
    {
      "constant": true,
      "inputs": [],
      "name": "crowdsalestartTime",
      "outputs": [
        {
          "name": "",
          "type": "uint256"
        }
      ],
      "payable": false,
      "stateMutability": "view",
      "type": "function"
    },
    {
      "constant": true,
      "inputs": [],
      "name": "weiRaised",
      "outputs": [
        {
          "name": "",
          "type": "uint256"
        }
      ],
      "payable": false,
      "stateMutability": "view",
      "type": "function"
    },
    {
      "constant": true,
      "inputs": [],
      "name": "RaisedInCents",
      "outputs": [
        {
          "name": "",
          "type": "uint256"
        }
      ],
      "payable": false,
      "stateMutability": "view",
      "type": "function"
    },
    {
      "constant": true,
      "inputs": [],
      "name": "wallet",
      "outputs": [
        {
          "name": "",
          "type": "address"
        }
      ],
      "payable": false,
      "stateMutability": "view",
      "type": "function"
    },
    {
      "constant": true,
      "inputs": [],
      "name": "tokenPrice",
      "outputs": [
        {
          "name": "",
          "type": "uint256"
        }
      ],
      "payable": false,
      "stateMutability": "view",
      "type": "function"
    },
    {
      "constant": true,
      "inputs": [],
      "name": "owner",
      "outputs": [
        {
          "name": "",
          "type": "address"
        }
      ],
      "payable": false,
      "stateMutability": "view",
      "type": "function"
    },
    {
      "constant": true,
      "inputs": [
        {
          "name": "",
          "type": "address"
        }
      ],
      "name": "whitelistedContributors",
      "outputs": [
        {
          "name": "",
          "type": "bool"
        }
      ],
      "payable": false,
      "stateMutability": "view",
      "type": "function"
    },
    {
      "constant": true,
      "inputs": [
        {
          "name": "",
          "type": "address"
        }
      ],
      "name": "beneficiaryVsTokens",
      "outputs": [
        {
          "name": "",
          "type": "uint256"
        }
      ],
      "payable": false,
      "stateMutability": "view",
      "type": "function"
    },
    {
      "constant": true,
      "inputs": [],
      "name": "crowdsalestarted",
      "outputs": [
        {
          "name": "",
          "type": "bool"
        }
      ],
      "payable": false,
      "stateMutability": "view",
      "type": "function"
    },
    {
      "constant": true,
      "inputs": [
        {
          "name": "",
          "type": "address"
        }
      ],
      "name": "beneficiaryVsWeiamount",
      "outputs": [
        {
          "name": "",
          "type": "uint256"
        }
      ],
      "payable": false,
      "stateMutability": "view",
      "type": "function"
    },
    {
      "constant": false,
      "inputs": [
        {
          "name": "newOwner",
          "type": "address"
        }
      ],
      "name": "transferOwnership",
      "outputs": [],
      "payable": false,
      "stateMutability": "nonpayable",
      "type": "function"
    },
    {
      "constant": true,
      "inputs": [],
      "name": "hardCap",
      "outputs": [
        {
          "name": "",
          "type": "uint256"
        }
      ],
      "payable": false,
      "stateMutability": "view",
      "type": "function"
    },
    {
      "constant": true,
      "inputs": [],
      "name": "token",
      "outputs": [
        {
          "name": "",
          "type": "address"
        }
      ],
      "payable": false,
      "stateMutability": "view",
      "type": "function"
    },
    {
      "constant": true,
      "inputs": [],
      "name": "ethPrice",
      "outputs": [
        {
          "name": "",
          "type": "uint256"
        }
      ],
      "payable": false,
      "stateMutability": "view",
      "type": "function"
    },
    {
      "inputs": [
        {
          "name": "_newOwner",
          "type": "address"
        },
        {
          "name": "_wallet",
          "type": "address"
        },
        {
          "name": "_token",
          "type": "address"
        },
        {
          "name": "_ethPriceincents",
          "type": "uint256"
        }
      ],
      "payable": false,
      "stateMutability": "nonpayable",
      "type": "constructor"
    },
    {
      "payable": true,
      "stateMutability": "payable",
      "type": "fallback"
    },
    {
      "anonymous": false,
      "inputs": [
        {
          "indexed": true,
          "name": "purchaser",
          "type": "address"
        },
        {
          "indexed": true,
          "name": "beneficiary",
          "type": "address"
        },
        {
          "indexed": false,
          "name": "value",
          "type": "uint256"
        },
        {
          "indexed": false,
          "name": "amount",
          "type": "uint256"
        }
      ],
      "name": "TokenPurchase",
      "type": "event"
    },
    {
      "anonymous": false,
      "inputs": [
        {
          "indexed": true,
          "name": "previousOwner",
          "type": "address"
        },
        {
          "indexed": true,
          "name": "newOwner",
          "type": "address"
        }
      ],
      "name": "OwnershipTransferred",
      "type": "event"
    },
    {
      "constant": false,
      "inputs": [
        {
          "name": "addrs",
          "type": "address[]"
        }
      ],
      "name": "authorizeKyc",
      "outputs": [
        {
          "name": "success",
          "type": "bool"
        }
      ],
      "payable": false,
      "stateMutability": "nonpayable",
      "type": "function"
    },
    {
      "constant": false,
      "inputs": [],
      "name": "startCrowdSale",
      "outputs": [],
      "payable": false,
      "stateMutability": "nonpayable",
      "type": "function"
    },
    {
      "constant": false,
      "inputs": [
        {
          "name": "_beneficiary",
          "type": "address"
        }
      ],
      "name": "buyTokens",
      "outputs": [],
      "payable": true,
      "stateMutability": "payable",
      "type": "function"
    },
    {
      "constant": true,
      "inputs": [
        {
          "name": "_usdCents",
          "type": "uint256"
        }
      ],
      "name": "_getTokenAmount",
      "outputs": [
        {
          "name": "",
          "type": "uint256"
        }
      ],
      "payable": false,
      "stateMutability": "view",
      "type": "function"
    },
    {
      "constant": false,
      "inputs": [],
      "name": "endCrowdsale",
      "outputs": [],
      "payable": false,
      "stateMutability": "nonpayable",
      "type": "function"
    }
  ],
  "bytecode": "0x6080604052624f1a006005556329b927006009556000600a556000600c60006101000a81548160ff02191690831515021790555068022b1c8c1227a00000600f5534801561004c57600080fd5b506040516080806112e283398101806040528101908080519060200190929190805190602001909291908051906020019092919080519060200190929190505050336000806101000a81548173ffffffffffffffffffffffffffffffffffffffff021916908373ffffffffffffffffffffffffffffffffffffffff160217905550600073ffffffffffffffffffffffffffffffffffffffff168373ffffffffffffffffffffffffffffffffffffffff161415151561010957600080fd5b600073ffffffffffffffffffffffffffffffffffffffff168473ffffffffffffffffffffffffffffffffffffffff161415151561014557600080fd5b600073ffffffffffffffffffffffffffffffffffffffff168273ffffffffffffffffffffffffffffffffffffffff161415151561018157600080fd5b82600260006101000a81548173ffffffffffffffffffffffffffffffffffffffff021916908373ffffffffffffffffffffffffffffffffffffffff160217905550836000806101000a81548173ffffffffffffffffffffffffffffffffffffffff021916908373ffffffffffffffffffffffffffffffffffffffff16021790555081600160006101000a81548173ffffffffffffffffffffffffffffffffffffffff021916908373ffffffffffffffffffffffffffffffffffffffff16021790555080600b81905550505050506110858061025d6000396000f300608060405260043610610128576000357c0100000000000000000000000000000000000000000000000000000000900463ffffffff1680630fb5a6b41461018a57806319af6f48146101b55780631d545d09146101e05780632095f2d41461020b5780632b93497b146102225780634042b66f1461024d578063434c471e14610278578063521eb273146102a357806370d7a0e7146102fa5780637a99bb0a1461034d5780637ff9b5961461038e5780638da5cb5b146103b9578063c7b850dd14610410578063d1a7f2421461046b578063d6b56520146104c2578063ec8ac4d8146104f1578063ef3c286914610527578063f2b45ac11461057e578063f2fde38b14610595578063fb86a404146105d8578063fc0c546a14610603578063ff186b2e1461065a575b6000809054906101000a900473ffffffffffffffffffffffffffffffffffffffff1673ffffffffffffffffffffffffffffffffffffffff163373ffffffffffffffffffffffffffffffffffffffff161415156101885761018733610685565b5b005b34801561019657600080fd5b5061019f6109c0565b6040518082815260200191505060405180910390f35b3480156101c157600080fd5b506101ca6109c6565b6040518082815260200191505060405180910390f35b3480156101ec57600080fd5b506101f56109cc565b6040518082815260200191505060405180910390f35b34801561021757600080fd5b506102206109d2565b005b34801561022e57600080fd5b50610237610a65565b6040518082815260200191505060405180910390f35b34801561025957600080fd5b50610262610a6b565b6040518082815260200191505060405180910390f35b34801561028457600080fd5b5061028d610a71565b6040518082815260200191505060405180910390f35b3480156102af57600080fd5b506102b8610a77565b604051808273ffffffffffffffffffffffffffffffffffffffff1673ffffffffffffffffffffffffffffffffffffffff16815260200191505060405180910390f35b34801561030657600080fd5b50610333600480360381019080803590602001908201803590602001919091929391929390505050610a9d565b604051808215151515815260200191505060405180910390f35b34801561035957600080fd5b5061037860048036038101908080359060200190929190505050610bab565b6040518082815260200191505060405180910390f35b34801561039a57600080fd5b506103a3610be1565b6040518082815260200191505060405180910390f35b3480156103c557600080fd5b506103ce610be7565b604051808273ffffffffffffffffffffffffffffffffffffffff1673ffffffffffffffffffffffffffffffffffffffff16815260200191505060405180910390f35b34801561041c57600080fd5b50610451600480360381019080803573ffffffffffffffffffffffffffffffffffffffff169060200190929190505050610c0c565b604051808215151515815260200191505060405180910390f35b34801561047757600080fd5b506104ac600480360381019080803573ffffffffffffffffffffffffffffffffffffffff169060200190929190505050610c2c565b6040518082815260200191505060405180910390f35b3480156104ce57600080fd5b506104d7610c44565b604051808215151515815260200191505060405180910390f35b610525600480360381019080803573ffffffffffffffffffffffffffffffffffffffff169060200190929190505050610685565b005b34801561053357600080fd5b50610568600480360381019080803573ffffffffffffffffffffffffffffffffffffffff169060200190929190505050610c57565b6040518082815260200191505060405180910390f35b34801561058a57600080fd5b50610593610c6f565b005b3480156105a157600080fd5b506105d6600480360381019080803573ffffffffffffffffffffffffffffffffffffffff169060200190929190505050610cca565b005b3480156105e457600080fd5b506105ed610e1f565b6040518082815260200191505060405180910390f35b34801561060f57600080fd5b50610618610e25565b604051808273ffffffffffffffffffffffffffffffffffffffff1673ffffffffffffffffffffffffffffffffffffffff16815260200191505060405180910390f35b34801561066657600080fd5b5061066f610e4b565b6040518082815260200191505060405180910390f35b600080600034925060008311151561069c57600080fd5b6000600b541115156106ad57600080fd5b60011515600660008673ffffffffffffffffffffffffffffffffffffffff1673ffffffffffffffffffffffffffffffffffffffff16815260200190815260200160002060009054906101000a900460ff16151514151561070c57600080fd5b60011515600c60009054906101000a900460ff16151514151561072e57600080fd5b600d544210158015610742575042600e5410155b151561074d57600080fd5b61077c670de0b6b3a764000061076e600b5486610e5190919063ffffffff16565b610e8c90919063ffffffff16565b915061078782610bab565b90506107938483610ea7565b506107a983600354610f1690919063ffffffff16565b60038190555061080181600760008773ffffffffffffffffffffffffffffffffffffffff1673ffffffffffffffffffffffffffffffffffffffff16815260200190815260200160002054610f1690919063ffffffff16565b600760008673ffffffffffffffffffffffffffffffffffffffff1673ffffffffffffffffffffffffffffffffffffffff1681526020019081526020016000208190555061089683600860008773ffffffffffffffffffffffffffffffffffffffff1673ffffffffffffffffffffffffffffffffffffffff16815260200190815260200160002054610f1690919063ffffffff16565b600860008673ffffffffffffffffffffffffffffffffffffffff1673ffffffffffffffffffffffffffffffffffffffff168152602001908152602001600020819055506108e38482610f34565b508373ffffffffffffffffffffffffffffffffffffffff163373ffffffffffffffffffffffffffffffffffffffff167f623b3804fa71d67900d064613da8f94b9617215ee90799290593e1745087ad188584604051808381526020018281526020019250505060405180910390a3600260009054906101000a900473ffffffffffffffffffffffffffffffffffffffff1673ffffffffffffffffffffffffffffffffffffffff166108fc349081150290604051600060405180830381858888f193505050501580156109b9573d6000803e3d6000fd5b5050505050565b60055481565b600a5481565b600e5481565b6000809054906101000a900473ffffffffffffffffffffffffffffffffffffffff1673ffffffffffffffffffffffffffffffffffffffff163373ffffffffffffffffffffffffffffffffffffffff16141515610a2d57600080fd5b600c60009054906101000a900460ff161515610a4857600080fd5b6000600c60006101000a81548160ff021916908315150217905550565b600d5481565b60035481565b60045481565b600260009054906101000a900473ffffffffffffffffffffffffffffffffffffffff1681565b60008060008060009054906101000a900473ffffffffffffffffffffffffffffffffffffffff1673ffffffffffffffffffffffffffffffffffffffff163373ffffffffffffffffffffffffffffffffffffffff16141515610afd57600080fd5b848490509150600090505b81811015610b9f576001600660008787858181101515610b2457fe5b9050602002013573ffffffffffffffffffffffffffffffffffffffff1673ffffffffffffffffffffffffffffffffffffffff1673ffffffffffffffffffffffffffffffffffffffff16815260200190815260200160002060006101000a81548160ff0219169083151502179055508080600101915050610b08565b60019250505092915050565b600080610bd6600f54610bc8606486610e8c90919063ffffffff16565b610e5190919063ffffffff16565b905080915050919050565b600f5481565b6000809054906101000a900473ffffffffffffffffffffffffffffffffffffffff1681565b60066020528060005260406000206000915054906101000a900460ff1681565b60076020528060005260406000206000915090505481565b600c60009054906101000a900460ff1681565b60086020528060005260406000206000915090505481565b600c60009054906101000a900460ff16151515610c8b57600080fd5b6001600c60006101000a81548160ff02191690831515021790555042600d81905550610cc260055442610f1690919063ffffffff16565b600e81905550565b6000809054906101000a900473ffffffffffffffffffffffffffffffffffffffff1673ffffffffffffffffffffffffffffffffffffffff163373ffffffffffffffffffffffffffffffffffffffff16141515610d2557600080fd5b600073ffffffffffffffffffffffffffffffffffffffff168173ffffffffffffffffffffffffffffffffffffffff1614151515610d6157600080fd5b8073ffffffffffffffffffffffffffffffffffffffff166000809054906101000a900473ffffffffffffffffffffffffffffffffffffffff1673ffffffffffffffffffffffffffffffffffffffff167f8be0079c531659141344cd1fd0a4f28419497f9722a3daafe3b4186f6b6457e060405160405180910390a3806000806101000a81548173ffffffffffffffffffffffffffffffffffffffff021916908373ffffffffffffffffffffffffffffffffffffffff16021790555050565b60095481565b600160009054906101000a900473ffffffffffffffffffffffffffffffffffffffff1681565b600b5481565b6000806000841415610e665760009150610e85565b8284029050828482811515610e7757fe5b04141515610e8157fe5b8091505b5092915050565b6000808284811515610e9a57fe5b0490508091505092915050565b60008073ffffffffffffffffffffffffffffffffffffffff168373ffffffffffffffffffffffffffffffffffffffff1614151515610ee457600080fd5b610ef982600454610f1690919063ffffffff16565b50600454600954111515610f0c57600080fd5b6001905092915050565b6000808284019050838110151515610f2a57fe5b8091505092915050565b6000610f408383610f4a565b6001905092915050565b600160009054906101000a900473ffffffffffffffffffffffffffffffffffffffff1673ffffffffffffffffffffffffffffffffffffffff1663a51a868283836040518363ffffffff167c0100000000000000000000000000000000000000000000000000000000028152600401808373ffffffffffffffffffffffffffffffffffffffff1673ffffffffffffffffffffffffffffffffffffffff16815260200182815260200192505050602060405180830381600087803b15801561100f57600080fd5b505af1158015611023573d6000803e3d6000fd5b505050506040513d602081101561103957600080fd5b8101908080519060200190929190505050151561105557600080fd5b50505600a165627a7a7230582084699100332495db7112d5a61b4b7e38f0b40eda3ec522a7fa6c76a33eb07bca0029",
  "source": "pragma solidity 0.4.24;\nimport './SafeMath.sol';\nimport './Ownable.sol';\n\n\ncontract fraction0x {\n\n  function saleTransfer(address _to, uint256 _value) public returns (bool);\n\n}\n\n\n\n/**\n * @title Crowdsale\n * @dev Crowdsale is a base contract for managing a token crowdsale,\n * allowing investors to purchase tokens with ether. This contract implements\n * such functionality in its most fundamental form and can be extended to provide additional\n * functionality and/or custom behavior.\n * The external interface represents the basic interface for purchasing tokens, and conform\n * the base architecture for crowdsales. They are *not* intended to be modified / overriden.\n * The internal interface conforms the extensible and modifiable surface of crowdsales. Override \n * the methods to add functionality. Consider using 'super' where appropiate to concatenate\n * behavior.\n */\n\n\ncontract Crowdsale is Ownable  {\n  \n  using SafeMath for uint256;\n\n  // The token being sold\n  fraction0x public token;\n\n  // Address where funds are collected\n  address public wallet;\n\n  // Amount of wei raised\n  uint256 public weiRaised;\n  // Amount of usd in cents Raised\n  \n  uint256 public RaisedInCents;\n  uint256 public duration = 60 days;\n  \n  mapping (address => bool) public whitelistedContributors;\n  mapping(address => uint256) public beneficiaryVsTokens;\n  mapping(address => uint256) public beneficiaryVsWeiamount;\n \n\n \n  //Hardcap and softcap of a sale is define\n  uint256 public hardCap = 700000000;// 7 mn USD\n  \n  \n  \n  //No of tokens sold in each phase\n  uint256 public crowdsaleTokenSold=0;\n  \n  uint256 public ethPrice;\n  \n  bool public crowdsalestarted = false;\n \n  uint256 public crowdsalestartTime;\n  uint256 public crowdsaleEndTime;\n  \n  \n  //percentage of bonus in different phases\n  \n  \n  \n  uint256 public tokenPrice = 40 * 1 ether; // \n\n  /**\n   * Event for token purchase logging\n   * @param purchaser who paid for the tokens\n   * @param beneficiary who got the tokens\n   * @param value weis paid for purchase\n   * @param amount amount of tokens purchased\n   */\n  event TokenPurchase(address indexed purchaser, address indexed beneficiary, uint256 value, uint256 amount);\n\n  \n  /**\n   * @param _wallet Address where collected funds will be forwarded to\n   * @param _wallet Address to collect funds\n   * @param _token Address of the token being sold\n   */\n  constructor(address _newOwner, address _wallet, fraction0x _token, uint256 _ethPriceincents) public \n  {\n    require(_wallet != address(0));\n    require(_newOwner != address(0));\n    require(_token != address(0));\n    \n\n    wallet = _wallet;\n    owner = _newOwner;\n    token = _token;\n    ethPrice = _ethPriceincents;\n\n    \n  }\n  \n    function authorizeKyc(address[] addrs) external onlyOwner returns (bool success) {\n        uint arrayLength = addrs.length;\n        for (uint x = 0; x < arrayLength; x++) {\n            whitelistedContributors[addrs[x]] = true;\n        }\n\n        return true;\n    }\n\n  \n  function startCrowdSale() public {\n      \n      require(!crowdsalestarted);\n      crowdsalestarted = true;\n      crowdsalestartTime = now;\n      crowdsaleEndTime =now.add(duration);\n      \n  }  \n  \n  /**\n   * @dev fallback function ***DO NOT OVERRIDE***\n   */\n  function () external payable {\n    if (msg.sender != owner) buyTokens(msg.sender);\n  }\n\n  /**\n   * @param _beneficiary Address performing the token purchase\n   */\n  function buyTokens(address _beneficiary) public payable {\n  \n    uint256 weiAmount =msg.value;\n    require(weiAmount > 0);\n    require(ethPrice > 0);\n    require(whitelistedContributors[_beneficiary] == true);\n    require(crowdsalestarted == true);\n    require(now >= crowdsalestartTime && crowdsaleEndTime >=now );\n    \n    uint256 usdCents = weiAmount.mul(ethPrice).div(1 ether); \n    \n\n    // calculate token amount to be created\n    uint256 tokens = _getTokenAmount(usdCents);\n   _preValidatePurchase(_beneficiary, usdCents);\n    \n\n    // update state\n    weiRaised = weiRaised.add(weiAmount);\n    \n    beneficiaryVsTokens[_beneficiary] = beneficiaryVsTokens[_beneficiary].add(tokens);\n    \n    beneficiaryVsWeiamount[_beneficiary] = beneficiaryVsWeiamount[_beneficiary].add(weiAmount);\n    \n  \n    _processPurchase(_beneficiary, tokens);\n    \n    emit TokenPurchase(msg.sender, _beneficiary, weiAmount, tokens);\n    \n    wallet.transfer(msg.value);\n  }\n  \n  function _getTokenAmount(uint256 _usdCents) public view returns (uint256) {\n    \n    uint256 tokens = _usdCents.div(100).mul(tokenPrice);\n    return tokens;\n  }\n\n  /**\n   * @dev Validation of an incoming purchase. Use require statemens to revert state when conditions are not met. Use super to concatenate validations.\n   * @param _beneficiary Address performing the token purchase\n \n   */\n  function _preValidatePurchase(address _beneficiary, uint256 _usdCents) internal view returns(bool)\n  {\n    require(_beneficiary != address(0));\n    \n    RaisedInCents.add(_usdCents);\n    \n    require(hardCap > RaisedInCents);\n    \n    return true;\n  }\n  \n  /**\n   * @dev Executed when a purchase has been validated and is ready to be executed. Not necessarily emits/sends tokens.\n   * @param _beneficiary Address receiving the tokens\n   * @param _tokenAmount Number of tokens to be purchased\n   */\n  function _processPurchase(address _beneficiary, uint256 _tokenAmount) internal returns(bool) {\n    _deliverTokens(_beneficiary, _tokenAmount);\n    return true;\n  }\n\n  /**\n   * @param _usdCents Value in usd cents to be converted into tokens\n   * @return Number of tokens that can be purchased with the specified _usdCents\n   */\n  \n  /**\n   * @dev Source of tokens. Override this method to modify the way in which the crowdsale ultimately gets and sends its tokens.\n   * @param _beneficiary Address performing the token purchase\n   * @param _tokenAmount Number of tokens to be emitted\n   */\n  function _deliverTokens(address _beneficiary, uint256 _tokenAmount) internal {\n    require(token.saleTransfer(_beneficiary, _tokenAmount));\n  }\n\n  function endCrowdsale() public onlyOwner\n  {\n      require(crowdsalestarted);\n      crowdsalestarted = false;\n  }\n  \n}\n",
  "sourcePath": "/home/abhi_21094/Desktop/fractionSTO/contracts/Crowdsale.sol",
  "compiler": {
    "name": "solc",
    "version": "0.4.24+commit.e67f0147.Emscripten.clang"
  },
  "schemaVersion": "2.0.1",
  "updatedAt": "2018-10-31T10:44:52.114Z"
}